{
  "_format": "hh-sol-artifact-1",
  "contractName": "Lottery",
  "sourceName": "contracts/Lottery.sol",
  "abi": [
    {
      "inputs": [
        {
          "internalType": "uint256",
          "name": "_ticketPrice",
          "type": "uint256"
        },
        {
          "internalType": "uint256",
          "name": "_minTickets",
          "type": "uint256"
        },
        {
          "internalType": "uint256",
          "name": "_lotteryDuration",
          "type": "uint256"
        }
      ],
      "stateMutability": "nonpayable",
      "type": "constructor"
    },
    {
      "inputs": [
        {
          "internalType": "address",
          "name": "owner",
          "type": "address"
        }
      ],
      "name": "OwnableInvalidOwner",
      "type": "error"
    },
    {
      "inputs": [
        {
          "internalType": "address",
          "name": "account",
          "type": "address"
        }
      ],
      "name": "OwnableUnauthorizedAccount",
      "type": "error"
    },
    {
      "anonymous": false,
      "inputs": [
        {
          "indexed": false,
          "internalType": "uint256",
          "name": "endTime",
          "type": "uint256"
        },
        {
          "indexed": false,
          "internalType": "uint256",
          "name": "round",
          "type": "uint256"
        }
      ],
      "name": "LotteryEnded",
      "type": "event"
    },
    {
      "anonymous": false,
      "inputs": [
        {
          "indexed": false,
          "internalType": "uint256",
          "name": "startTime",
          "type": "uint256"
        },
        {
          "indexed": false,
          "internalType": "uint256",
          "name": "duration",
          "type": "uint256"
        },
        {
          "indexed": false,
          "internalType": "uint256",
          "name": "round",
          "type": "uint256"
        }
      ],
      "name": "LotteryStarted",
      "type": "event"
    },
    {
      "anonymous": false,
      "inputs": [
        {
          "indexed": true,
          "internalType": "address",
          "name": "previousOwner",
          "type": "address"
        },
        {
          "indexed": true,
          "internalType": "address",
          "name": "newOwner",
          "type": "address"
        }
      ],
      "name": "OwnershipTransferred",
      "type": "event"
    },
    {
      "anonymous": false,
      "inputs": [
        {
          "indexed": true,
          "internalType": "address",
          "name": "buyer",
          "type": "address"
        },
        {
          "indexed": false,
          "internalType": "uint256",
          "name": "amount",
          "type": "uint256"
        }
      ],
      "name": "TicketPurchased",
      "type": "event"
    },
    {
      "anonymous": false,
      "inputs": [
        {
          "indexed": true,
          "internalType": "address",
          "name": "winner",
          "type": "address"
        },
        {
          "indexed": false,
          "internalType": "uint256",
          "name": "prize",
          "type": "uint256"
        },
        {
          "indexed": false,
          "internalType": "uint256",
          "name": "round",
          "type": "uint256"
        }
      ],
      "name": "WinnerSelected",
      "type": "event"
    },
    {
      "inputs": [
        {
          "internalType": "uint256",
          "name": "_numTickets",
          "type": "uint256"
        }
      ],
      "name": "buyTickets",
      "outputs": [],
      "stateMutability": "payable",
      "type": "function"
    },
    {
      "inputs": [],
      "name": "currentRound",
      "outputs": [
        {
          "internalType": "uint256",
          "name": "",
          "type": "uint256"
        }
      ],
      "stateMutability": "view",
      "type": "function"
    },
    {
      "inputs": [],
      "name": "endLottery",
      "outputs": [],
      "stateMutability": "nonpayable",
      "type": "function"
    },
    {
      "inputs": [],
      "name": "getNumberOfParticipants",
      "outputs": [
        {
          "internalType": "uint256",
          "name": "",
          "type": "uint256"
        }
      ],
      "stateMutability": "view",
      "type": "function"
    },
    {
      "inputs": [
        {
          "internalType": "uint256",
          "name": "_round",
          "type": "uint256"
        }
      ],
      "name": "getRoundWinner",
      "outputs": [
        {
          "internalType": "address",
          "name": "",
          "type": "address"
        },
        {
          "internalType": "uint256",
          "name": "",
          "type": "uint256"
        }
      ],
      "stateMutability": "view",
      "type": "function"
    },
    {
      "inputs": [],
      "name": "getTimeRemaining",
      "outputs": [
        {
          "internalType": "uint256",
          "name": "",
          "type": "uint256"
        }
      ],
      "stateMutability": "view",
      "type": "function"
    },
    {
      "inputs": [],
      "name": "isLotteryActive",
      "outputs": [
        {
          "internalType": "bool",
          "name": "",
          "type": "bool"
        }
      ],
      "stateMutability": "view",
      "type": "function"
    },
    {
      "inputs": [],
      "name": "lotteryDuration",
      "outputs": [
        {
          "internalType": "uint256",
          "name": "",
          "type": "uint256"
        }
      ],
      "stateMutability": "view",
      "type": "function"
    },
    {
      "inputs": [],
      "name": "lotteryStartTime",
      "outputs": [
        {
          "internalType": "uint256",
          "name": "",
          "type": "uint256"
        }
      ],
      "stateMutability": "view",
      "type": "function"
    },
    {
      "inputs": [],
      "name": "lotteryState",
      "outputs": [
        {
          "internalType": "enum Lottery.LotteryState",
          "name": "",
          "type": "uint8"
        }
      ],
      "stateMutability": "view",
      "type": "function"
    },
    {
      "inputs": [],
      "name": "minTickets",
      "outputs": [
        {
          "internalType": "uint256",
          "name": "",
          "type": "uint256"
        }
      ],
      "stateMutability": "view",
      "type": "function"
    },
    {
      "inputs": [],
      "name": "owner",
      "outputs": [
        {
          "internalType": "address",
          "name": "",
          "type": "address"
        }
      ],
      "stateMutability": "view",
      "type": "function"
    },
    {
      "inputs": [],
      "name": "renounceOwnership",
      "outputs": [],
      "stateMutability": "nonpayable",
      "type": "function"
    },
    {
      "inputs": [
        {
          "internalType": "uint256",
          "name": "",
          "type": "uint256"
        },
        {
          "internalType": "uint256",
          "name": "",
          "type": "uint256"
        }
      ],
      "name": "roundToParticipants",
      "outputs": [
        {
          "internalType": "address",
          "name": "",
          "type": "address"
        }
      ],
      "stateMutability": "view",
      "type": "function"
    },
    {
      "inputs": [
        {
          "internalType": "uint256",
          "name": "",
          "type": "uint256"
        }
      ],
      "name": "roundToPrize",
      "outputs": [
        {
          "internalType": "uint256",
          "name": "",
          "type": "uint256"
        }
      ],
      "stateMutability": "view",
      "type": "function"
    },
    {
      "inputs": [
        {
          "internalType": "uint256",
          "name": "",
          "type": "uint256"
        }
      ],
      "name": "roundToWinner",
      "outputs": [
        {
          "internalType": "address",
          "name": "",
          "type": "address"
        }
      ],
      "stateMutability": "view",
      "type": "function"
    },
    {
      "inputs": [],
      "name": "startLottery",
      "outputs": [],
      "stateMutability": "nonpayable",
      "type": "function"
    },
    {
      "inputs": [],
      "name": "ticketPrice",
      "outputs": [
        {
          "internalType": "uint256",
          "name": "",
          "type": "uint256"
        }
      ],
      "stateMutability": "view",
      "type": "function"
    },
    {
      "inputs": [
        {
          "internalType": "address",
          "name": "",
          "type": "address"
        }
      ],
      "name": "ticketsPurchased",
      "outputs": [
        {
          "internalType": "uint256",
          "name": "",
          "type": "uint256"
        }
      ],
      "stateMutability": "view",
      "type": "function"
    },
    {
      "inputs": [
        {
          "internalType": "address",
          "name": "newOwner",
          "type": "address"
        }
      ],
      "name": "transferOwnership",
      "outputs": [],
      "stateMutability": "nonpayable",
      "type": "function"
    },
    {
      "inputs": [
        {
          "internalType": "uint256",
          "name": "_newDuration",
          "type": "uint256"
        }
      ],
      "name": "updateLotteryDuration",
      "outputs": [],
      "stateMutability": "nonpayable",
      "type": "function"
    },
    {
      "inputs": [
        {
          "internalType": "uint256",
          "name": "_newMinTickets",
          "type": "uint256"
        }
      ],
      "name": "updateMinTickets",
      "outputs": [],
      "stateMutability": "nonpayable",
      "type": "function"
    },
    {
      "inputs": [
        {
          "internalType": "uint256",
          "name": "_newPrice",
          "type": "uint256"
        }
      ],
      "name": "updateTicketPrice",
      "outputs": [],
      "stateMutability": "nonpayable",
      "type": "function"
    }
  ],
  "bytecode": "0x608060405234801561001057600080fd5b50604051612a01380380612a01833981810160405281019061003291906102cd565b33600073ffffffffffffffffffffffffffffffffffffffff168173ffffffffffffffffffffffffffffffffffffffff16036100a55760006040517f1e4fbdf700000000000000000000000000000000000000000000000000000000815260040161009c9190610361565b60405180910390fd5b6100b4816101ce60201b60201c565b50600083116100f8576040517f08c379a00000000000000000000000000000000000000000000000000000000081526004016100ef906103ff565b60405180910390fd5b6001821161013b576040517f08c379a000000000000000000000000000000000000000000000000000000000815260040161013290610491565b60405180910390fd5b6000811161017e576040517f08c379a000000000000000000000000000000000000000000000000000000000815260040161017590610523565b60405180910390fd5b8260018190555081600281905550806005819055506001600a60006101000a81548160ff021916908360028111156101b9576101b8610543565b5b02179055506000600381905550505050610572565b60008060009054906101000a900473ffffffffffffffffffffffffffffffffffffffff169050816000806101000a81548173ffffffffffffffffffffffffffffffffffffffff021916908373ffffffffffffffffffffffffffffffffffffffff1602179055508173ffffffffffffffffffffffffffffffffffffffff168173ffffffffffffffffffffffffffffffffffffffff167f8be0079c531659141344cd1fd0a4f28419497f9722a3daafe3b4186f6b6457e060405160405180910390a35050565b600080fd5b6000819050919050565b6102aa81610297565b81146102b557600080fd5b50565b6000815190506102c7816102a1565b92915050565b6000806000606084860312156102e6576102e5610292565b5b60006102f4868287016102b8565b9350506020610305868287016102b8565b9250506040610316868287016102b8565b9150509250925092565b600073ffffffffffffffffffffffffffffffffffffffff82169050919050565b600061034b82610320565b9050919050565b61035b81610340565b82525050565b60006020820190506103766000830184610352565b92915050565b600082825260208201905092915050565b7f5469636b6574207072696365206d75737420626520677265617465722074686160008201527f6e20300000000000000000000000000000000000000000000000000000000000602082015250565b60006103e960238361037c565b91506103f48261038d565b604082019050919050565b60006020820190508181036000830152610418816103dc565b9050919050565b7f4d696e696d756d207469636b657473206d75737420626520677265617465722060008201527f7468616e20310000000000000000000000000000000000000000000000000000602082015250565b600061047b60268361037c565b91506104868261041f565b604082019050919050565b600060208201905081810360008301526104aa8161046e565b9050919050565b7f4c6f7474657279206475726174696f6e206d757374206265206772656174657260008201527f207468616e203000000000000000000000000000000000000000000000000000602082015250565b600061050d60278361037c565b9150610518826104b1565b604082019050919050565b6000602082019050818103600083015261053c81610500565b9050919050565b7f4e487b7100000000000000000000000000000000000000000000000000000000600052602160045260246000fd5b612480806105816000396000f3fe6080604052600436106101405760003560e01c80638a19c8bc116100b6578063c80c28a21161006f578063c80c28a21461042e578063c984aaaf14610459578063dac6270d14610484578063ee01e69b146104af578063f02137c8146104d8578063f2fde38b1461050157610140565b80638a19c8bc1461031c5780638da5cb5b146103475780638e51001d1461037257806396304946146103af578063a36b6aea146103d8578063c3b69ebb1461040357610140565b806354a8fb471161010857806354a8fb47146101e55780636939864b146102235780636ccda0a61461024e578063715018a61461028b5780637bdb23dc146102a25780638786d247146102df57610140565b80631209b1f6146101455780631593a8c714610170578063160344e2146101875780632d97902f1461019e5780632f366637146101c9575b600080fd5b34801561015157600080fd5b5061015a61052a565b6040516101679190611746565b60405180910390f35b34801561017c57600080fd5b50610185610530565b005b34801561019357600080fd5b5061019c6106ca565b005b3480156101aa57600080fd5b506101b36107d5565b6040516101c09190611746565b60405180910390f35b6101e360048036038101906101de9190611792565b6107db565b005b3480156101f157600080fd5b5061020c60048036038101906102079190611792565b610a6a565b60405161021a929190611800565b60405180910390f35b34801561022f57600080fd5b50610238610b0f565b60405161024591906118a0565b60405180910390f35b34801561025a57600080fd5b50610275600480360381019061027091906118e7565b610b22565b6040516102829190611746565b60405180910390f35b34801561029757600080fd5b506102a0610b3a565b005b3480156102ae57600080fd5b506102c960048036038101906102c49190611914565b610b4e565b6040516102d69190611954565b60405180910390f35b3480156102eb57600080fd5b5061030660048036038101906103019190611792565b610b9c565b6040516103139190611746565b60405180910390f35b34801561032857600080fd5b50610331610bb4565b60405161033e9190611746565b60405180910390f35b34801561035357600080fd5b5061035c610bba565b6040516103699190611954565b60405180910390f35b34801561037e57600080fd5b5061039960048036038101906103949190611792565b610be3565b6040516103a69190611954565b60405180910390f35b3480156103bb57600080fd5b506103d660048036038101906103d19190611792565b610c16565b005b3480156103e457600080fd5b506103ed610ce1565b6040516103fa9190611746565b60405180910390f35b34801561040f57600080fd5b50610418610ce7565b604051610425919061198a565b60405180910390f35b34801561043a57600080fd5b50610443610d3e565b6040516104509190611746565b60405180910390f35b34801561046557600080fd5b5061046e610d5e565b60405161047b9190611746565b60405180910390f35b34801561049057600080fd5b50610499610d64565b6040516104a69190611746565b60405180910390f35b3480156104bb57600080fd5b506104d660048036038101906104d19190611792565b610de6565b005b3480156104e457600080fd5b506104ff60048036038101906104fa9190611792565b610eb1565b005b34801561050d57600080fd5b50610528600480360381019061052391906118e7565b610f7c565b005b60015481565b610538611002565b6000600281111561054c5761054b611829565b5b600a60009054906101000a900460ff16600281111561056e5761056d611829565b5b146105ae576040517f08c379a00000000000000000000000000000000000000000000000000000000081526004016105a590611a02565b60405180910390fd5b6005546004546105be9190611a51565b421015610600576040517f08c379a00000000000000000000000000000000000000000000000000000000081526004016105f790611ad1565b60405180910390fd5b6002600a60006101000a81548160ff0219169083600281111561062657610625611829565b5b02179055507f477f90094eafb23c8645d2fa968ffe3806f2107e7f977dc4bfd3c3878acd4ee34260035460405161065e929190611af1565b60405180910390a160025460066000600354815260200190815260200160002080549050106106945761068f611089565b6106c8565b61069c611489565b6001600a60006101000a81548160ff021916908360028111156106c2576106c1611829565b5b02179055505b565b6106d2611002565b600160028111156106e6576106e5611829565b5b600a60009054906101000a900460ff16600281111561070857610707611829565b5b14610748576040517f08c379a000000000000000000000000000000000000000000000000000000000815260040161073f90611b66565b60405180910390fd5b6000600a60006101000a81548160ff0219169083600281111561076e5761076d611829565b5b02179055506003600081548092919061078690611b86565b9190505550426004819055507ffcdeb3394eefba8891818e18ed3c4d1aa8872705afa5819133971caea073dc1d6004546005546003546040516107cb93929190611bce565b60405180910390a1565b60055481565b600060028111156107ef576107ee611829565b5b600a60009054906101000a900460ff16600281111561081157610810611829565b5b14610851576040517f08c379a000000000000000000000000000000000000000000000000000000000815260040161084890611a02565b60405180910390fd5b6005546004546108619190611a51565b42106108a2576040517f08c379a000000000000000000000000000000000000000000000000000000000815260040161089990611c51565b60405180910390fd5b600081116108e5576040517f08c379a00000000000000000000000000000000000000000000000000000000081526004016108dc90611ce3565b60405180910390fd5b806001546108f39190611d03565b3414610934576040517f08c379a000000000000000000000000000000000000000000000000000000000815260040161092b90611d91565b60405180910390fd5b60005b818110156109c257600660006003548152602001908152602001600020339080600181540180825580915050600190039060005260206000200160009091909190916101000a81548173ffffffffffffffffffffffffffffffffffffffff021916908373ffffffffffffffffffffffffffffffffffffffff1602179055508080600101915050610937565b5080600760003373ffffffffffffffffffffffffffffffffffffffff1673ffffffffffffffffffffffffffffffffffffffff1681526020019081526020016000206000828254610a129190611a51565b925050819055503373ffffffffffffffffffffffffffffffffffffffff167f0668f5b446eb814fe35b3206f43f14bd8567ba04ddaf7a3ee56516929ab22ccb82604051610a5f9190611746565b60405180910390a250565b600080600083118015610a7f57506003548311155b610abe576040517f08c379a0000000000000000000000000000000000000000000000000000000008152600401610ab590611dfd565b60405180910390fd5b6008600084815260200190815260200160002060009054906101000a900473ffffffffffffffffffffffffffffffffffffffff16600960008581526020019081526020016000205491509150915091565b600a60009054906101000a900460ff1681565b60076020528060005260406000206000915090505481565b610b42611002565b610b4c6000611661565b565b60066020528160005260406000208181548110610b6a57600080fd5b906000526020600020016000915091509054906101000a900473ffffffffffffffffffffffffffffffffffffffff1681565b60096020528060005260406000206000915090505481565b60035481565b60008060009054906101000a900473ffffffffffffffffffffffffffffffffffffffff16905090565b60086020528060005260406000206000915054906101000a900473ffffffffffffffffffffffffffffffffffffffff1681565b610c1e611002565b60016002811115610c3257610c31611829565b5b600a60009054906101000a900460ff166002811115610c5457610c53611829565b5b14610c94576040517f08c379a0000000000000000000000000000000000000000000000000000000008152600401610c8b90611e8f565b60405180910390fd5b60008111610cd7576040517f08c379a0000000000000000000000000000000000000000000000000000000008152600401610cce90611efb565b60405180910390fd5b8060058190555050565b60045481565b6000806002811115610cfc57610cfb611829565b5b600a60009054906101000a900460ff166002811115610d1e57610d1d611829565b5b148015610d395750600554600454610d369190611a51565b42105b905090565b600060066000600354815260200190815260200160002080549050905090565b60025481565b6000806002811115610d7957610d78611829565b5b600a60009054906101000a900460ff166002811115610d9b57610d9a611829565b5b141580610db75750600554600454610db39190611a51565b4210155b15610dc55760009050610de3565b42600554600454610dd69190611a51565b610de09190611f1b565b90505b90565b610dee611002565b60016002811115610e0257610e01611829565b5b600a60009054906101000a900460ff166002811115610e2457610e23611829565b5b14610e64576040517f08c379a0000000000000000000000000000000000000000000000000000000008152600401610e5b90611e8f565b60405180910390fd5b60018111610ea7576040517f08c379a0000000000000000000000000000000000000000000000000000000008152600401610e9e90611fc1565b60405180910390fd5b8060028190555050565b610eb9611002565b60016002811115610ecd57610ecc611829565b5b600a60009054906101000a900460ff166002811115610eef57610eee611829565b5b14610f2f576040517f08c379a0000000000000000000000000000000000000000000000000000000008152600401610f2690611e8f565b60405180910390fd5b60008111610f72576040517f08c379a0000000000000000000000000000000000000000000000000000000008152600401610f699061202d565b60405180910390fd5b8060018190555050565b610f84611002565b600073ffffffffffffffffffffffffffffffffffffffff168173ffffffffffffffffffffffffffffffffffffffff1603610ff65760006040517f1e4fbdf7000000000000000000000000000000000000000000000000000000008152600401610fed9190611954565b60405180910390fd5b610fff81611661565b50565b61100a611725565b73ffffffffffffffffffffffffffffffffffffffff16611028610bba565b73ffffffffffffffffffffffffffffffffffffffff16146110875761104b611725565b6040517f118cdaa700000000000000000000000000000000000000000000000000000000815260040161107e9190611954565b60405180910390fd5b565b60028081111561109c5761109b611829565b5b600a60009054906101000a900460ff1660028111156110be576110bd611829565b5b146110fe576040517f08c379a00000000000000000000000000000000000000000000000000000000081526004016110f590612099565b60405180910390fd5b60025460066000600354815260200190815260200160002080549050101561115b576040517f08c379a000000000000000000000000000000000000000000000000000000000815260040161115290612105565b60405180910390fd5b600047905060006006600060035481526020019081526020016000208054905042446006600060035481526020019081526020016000206040516020016111a493929190612264565b6040516020818303038152906040528051906020012060001c6111c791906122cc565b9050600060066000600354815260200190815260200160002082815481106111f2576111f16122fd565b5b9060005260206000200160009054906101000a900473ffffffffffffffffffffffffffffffffffffffff1690508060086000600354815260200190815260200160002060006101000a81548173ffffffffffffffffffffffffffffffffffffffff021916908373ffffffffffffffffffffffffffffffffffffffff160217905550826009600060035481526020019081526020016000208190555060008173ffffffffffffffffffffffffffffffffffffffff16846040516112b39061235d565b60006040518083038185875af1925050503d80600081146112f0576040519150601f19603f3d011682016040523d82523d6000602084013e6112f5565b606091505b5050905080611339576040517f08c379a0000000000000000000000000000000000000000000000000000000008152600401611330906123be565b60405180910390fd5b8173ffffffffffffffffffffffffffffffffffffffff167f866efae43947560fe9d0de9013bc323d5718730d5c1543261b48a7bcb0717b9385600354604051611383929190611af1565b60405180910390a26001600a60006101000a81548160ff021916908360028111156113b1576113b0611829565b5b021790555060005b600660006003548152602001908152602001600020805490508110156114825760006006600060035481526020019081526020016000208281548110611402576114016122fd565b5b9060005260206000200160009054906101000a900473ffffffffffffffffffffffffffffffffffffffff1690506000600760008373ffffffffffffffffffffffffffffffffffffffff1673ffffffffffffffffffffffffffffffffffffffff168152602001908152602001600020819055505080806001019150506113b9565b5050505050565b60005b6006600060035481526020019081526020016000208054905081101561165e57600060066000600354815260200190815260200160002082815481106114d5576114d46122fd565b5b9060005260206000200160009054906101000a900473ffffffffffffffffffffffffffffffffffffffff1690506000600154600760008473ffffffffffffffffffffffffffffffffffffffff1673ffffffffffffffffffffffffffffffffffffffff168152602001908152602001600020546115519190611d03565b9050600081111561164f576000600760008473ffffffffffffffffffffffffffffffffffffffff1673ffffffffffffffffffffffffffffffffffffffff1681526020019081526020016000208190555060008273ffffffffffffffffffffffffffffffffffffffff16826040516115c79061235d565b60006040518083038185875af1925050503d8060008114611604576040519150601f19603f3d011682016040523d82523d6000602084013e611609565b606091505b505090508061164d576040517f08c379a00000000000000000000000000000000000000000000000000000000081526004016116449061242a565b60405180910390fd5b505b5050808060010191505061148c565b50565b60008060009054906101000a900473ffffffffffffffffffffffffffffffffffffffff169050816000806101000a81548173ffffffffffffffffffffffffffffffffffffffff021916908373ffffffffffffffffffffffffffffffffffffffff1602179055508173ffffffffffffffffffffffffffffffffffffffff168173ffffffffffffffffffffffffffffffffffffffff167f8be0079c531659141344cd1fd0a4f28419497f9722a3daafe3b4186f6b6457e060405160405180910390a35050565b600033905090565b6000819050919050565b6117408161172d565b82525050565b600060208201905061175b6000830184611737565b92915050565b600080fd5b61176f8161172d565b811461177a57600080fd5b50565b60008135905061178c81611766565b92915050565b6000602082840312156117a8576117a7611761565b5b60006117b68482850161177d565b91505092915050565b600073ffffffffffffffffffffffffffffffffffffffff82169050919050565b60006117ea826117bf565b9050919050565b6117fa816117df565b82525050565b600060408201905061181560008301856117f1565b6118226020830184611737565b9392505050565b7f4e487b7100000000000000000000000000000000000000000000000000000000600052602160045260246000fd5b6003811061186957611868611829565b5b50565b600081905061187a82611858565b919050565b600061188a8261186c565b9050919050565b61189a8161187f565b82525050565b60006020820190506118b56000830184611891565b92915050565b6118c4816117df565b81146118cf57600080fd5b50565b6000813590506118e1816118bb565b92915050565b6000602082840312156118fd576118fc611761565b5b600061190b848285016118d2565b91505092915050565b6000806040838503121561192b5761192a611761565b5b60006119398582860161177d565b925050602061194a8582860161177d565b9150509250929050565b600060208201905061196960008301846117f1565b92915050565b60008115159050919050565b6119848161196f565b82525050565b600060208201905061199f600083018461197b565b92915050565b600082825260208201905092915050565b7f4c6f7474657279206973206e6f74206f70656e00000000000000000000000000600082015250565b60006119ec6013836119a5565b91506119f7826119b6565b602082019050919050565b60006020820190508181036000830152611a1b816119df565b9050919050565b7f4e487b7100000000000000000000000000000000000000000000000000000000600052601160045260246000fd5b6000611a5c8261172d565b9150611a678361172d565b9250828201905080821115611a7f57611a7e611a22565b5b92915050565b7f4c6f7474657279206475726174696f6e206e6f74207965742070617373656400600082015250565b6000611abb601f836119a5565b9150611ac682611a85565b602082019050919050565b60006020820190508181036000830152611aea81611aae565b9050919050565b6000604082019050611b066000830185611737565b611b136020830184611737565b9392505050565b7f4c6f7474657279206973206e6f7420636c6f7365640000000000000000000000600082015250565b6000611b506015836119a5565b9150611b5b82611b1a565b602082019050919050565b60006020820190508181036000830152611b7f81611b43565b9050919050565b6000611b918261172d565b91507fffffffffffffffffffffffffffffffffffffffffffffffffffffffffffffffff8203611bc357611bc2611a22565b5b600182019050919050565b6000606082019050611be36000830186611737565b611bf06020830185611737565b611bfd6040830184611737565b949350505050565b7f4c6f74746572792068617320656e646564000000000000000000000000000000600082015250565b6000611c3b6011836119a5565b9150611c4682611c05565b602082019050919050565b60006020820190508181036000830152611c6a81611c2e565b9050919050565b7f4d757374207075726368617365206174206c65617374206f6e65207469636b6560008201527f7400000000000000000000000000000000000000000000000000000000000000602082015250565b6000611ccd6021836119a5565b9150611cd882611c71565b604082019050919050565b60006020820190508181036000830152611cfc81611cc0565b9050919050565b6000611d0e8261172d565b9150611d198361172d565b9250828202611d278161172d565b91508282048414831517611d3e57611d3d611a22565b5b5092915050565b7f496e636f72726563742045544820616d6f756e74000000000000000000000000600082015250565b6000611d7b6014836119a5565b9150611d8682611d45565b602082019050919050565b60006020820190508181036000830152611daa81611d6e565b9050919050565b7f496e76616c696420726f756e6400000000000000000000000000000000000000600082015250565b6000611de7600d836119a5565b9150611df282611db1565b602082019050919050565b60006020820190508181036000830152611e1681611dda565b9050919050565b7f43616e6e6f742075706461746520647572696e6720616374697665206c6f747460008201527f6572790000000000000000000000000000000000000000000000000000000000602082015250565b6000611e796023836119a5565b9150611e8482611e1d565b604082019050919050565b60006020820190508181036000830152611ea881611e6c565b9050919050565b7f4475726174696f6e206d7573742062652067726561746572207468616e203000600082015250565b6000611ee5601f836119a5565b9150611ef082611eaf565b602082019050919050565b60006020820190508181036000830152611f1481611ed8565b9050919050565b6000611f268261172d565b9150611f318361172d565b9250828203905081811115611f4957611f48611a22565b5b92915050565b7f4d696e696d756d207469636b657473206d75737420626520677265617465722060008201527f7468616e20310000000000000000000000000000000000000000000000000000602082015250565b6000611fab6026836119a5565b9150611fb682611f4f565b604082019050919050565b60006020820190508181036000830152611fda81611f9e565b9050919050565b7f5072696365206d7573742062652067726561746572207468616e203000000000600082015250565b6000612017601c836119a5565b915061202282611fe1565b602082019050919050565b600060208201905081810360008301526120468161200a565b9050919050565b7f4e6f7420696e2064726177696e67207374617465000000000000000000000000600082015250565b60006120836014836119a5565b915061208e8261204d565b602082019050919050565b600060208201905081810360008301526120b281612076565b9050919050565b7f4e6f7420656e6f756768207061727469636970616e7473000000000000000000600082015250565b60006120ef6017836119a5565b91506120fa826120b9565b602082019050919050565b6000602082019050818103600083015261211e816120e2565b9050919050565b6000819050919050565b61214061213b8261172d565b612125565b82525050565b600081549050919050565b600081905092915050565b60008190508160005260206000209050919050565b61217a816117df565b82525050565b600061218c8383612171565b60208301905092915050565b60008160001c9050919050565b600073ffffffffffffffffffffffffffffffffffffffff82169050919050565b60006121d86121d383612198565b6121a5565b9050919050565b60006121eb82546121c5565b9050919050565b6000600182019050919050565b600061220a82612146565b6122148185612151565b935061221f8361215c565b8060005b8381101561225757612234826121df565b61223e8882612180565b9750612249836121f2565b925050600181019050612223565b5085935050505092915050565b6000612270828661212f565b602082019150612280828561212f565b60208201915061229082846121ff565b9150819050949350505050565b7f4e487b7100000000000000000000000000000000000000000000000000000000600052601260045260246000fd5b60006122d78261172d565b91506122e28361172d565b9250826122f2576122f161229d565b5b828206905092915050565b7f4e487b7100000000000000000000000000000000000000000000000000000000600052603260045260246000fd5b600081905092915050565b50565b600061234760008361232c565b915061235282612337565b600082019050919050565b60006123688261233a565b9150819050919050565b7f5472616e73666572206661696c65640000000000000000000000000000000000600082015250565b60006123a8600f836119a5565b91506123b382612372565b602082019050919050565b600060208201905081810360008301526123d78161239b565b9050919050565b7f526566756e64206661696c656400000000000000000000000000000000000000600082015250565b6000612414600d836119a5565b915061241f826123de565b602082019050919050565b6000602082019050818103600083015261244381612407565b905091905056fea264697066735822122062ff798301849aaf29ce988200b548c2d195569a88e95eb80e1fb108b2a8b26464736f6c634300081c0033",
  "linkReferences": {},
  "deployedLinkReferences": {}
}