{
  "_format": "hh-sol-artifact-1",
  "contractName": "Lottery",
  "sourceName": "contracts/Lottery.sol",
  "abi": [
    {
      "inputs": [
        {
          "internalType": "uint256",
          "name": "_ticketPrice",
          "type": "uint256"
        },
        {
          "internalType": "uint256",
          "name": "_minTickets",
          "type": "uint256"
        },
        {
          "internalType": "uint256",
          "name": "_lotteryDuration",
          "type": "uint256"
        }
      ],
      "stateMutability": "nonpayable",
      "type": "constructor"
    },
    {
      "inputs": [
        {
          "internalType": "address",
          "name": "owner",
          "type": "address"
        }
      ],
      "name": "OwnableInvalidOwner",
      "type": "error"
    },
    {
      "inputs": [
        {
          "internalType": "address",
          "name": "account",
          "type": "address"
        }
      ],
      "name": "OwnableUnauthorizedAccount",
      "type": "error"
    },
    {
      "anonymous": false,
      "inputs": [
        {
          "indexed": false,
          "internalType": "uint256",
          "name": "endTime",
          "type": "uint256"
        },
        {
          "indexed": false,
          "internalType": "uint256",
          "name": "round",
          "type": "uint256"
        }
      ],
      "name": "LotteryEnded",
      "type": "event"
    },
    {
      "anonymous": false,
      "inputs": [
        {
          "indexed": false,
          "internalType": "uint256",
          "name": "startTime",
          "type": "uint256"
        },
        {
          "indexed": false,
          "internalType": "uint256",
          "name": "duration",
          "type": "uint256"
        },
        {
          "indexed": false,
          "internalType": "uint256",
          "name": "round",
          "type": "uint256"
        }
      ],
      "name": "LotteryStarted",
      "type": "event"
    },
    {
      "anonymous": false,
      "inputs": [
        {
          "indexed": true,
          "internalType": "address",
          "name": "previousOwner",
          "type": "address"
        },
        {
          "indexed": true,
          "internalType": "address",
          "name": "newOwner",
          "type": "address"
        }
      ],
      "name": "OwnershipTransferred",
      "type": "event"
    },
    {
      "anonymous": false,
      "inputs": [
        {
          "indexed": true,
          "internalType": "address",
          "name": "buyer",
          "type": "address"
        },
        {
          "indexed": false,
          "internalType": "uint256",
          "name": "amount",
          "type": "uint256"
        }
      ],
      "name": "TicketPurchased",
      "type": "event"
    },
    {
      "anonymous": false,
      "inputs": [
        {
          "indexed": true,
          "internalType": "address",
          "name": "winner",
          "type": "address"
        },
        {
          "indexed": false,
          "internalType": "uint256",
          "name": "prize",
          "type": "uint256"
        },
        {
          "indexed": false,
          "internalType": "uint256",
          "name": "round",
          "type": "uint256"
        }
      ],
      "name": "WinnerSelected",
      "type": "event"
    },
    {
      "inputs": [
        {
          "internalType": "uint256",
          "name": "_numTickets",
          "type": "uint256"
        }
      ],
      "name": "buyTickets",
      "outputs": [],
      "stateMutability": "payable",
      "type": "function"
    },
    {
      "inputs": [],
      "name": "currentRound",
      "outputs": [
        {
          "internalType": "uint256",
          "name": "",
          "type": "uint256"
        }
      ],
      "stateMutability": "view",
      "type": "function"
    },
    {
      "inputs": [],
      "name": "endLottery",
      "outputs": [],
      "stateMutability": "nonpayable",
      "type": "function"
    },
    {
      "inputs": [],
      "name": "getNumberOfParticipants",
      "outputs": [
        {
          "internalType": "uint256",
          "name": "",
          "type": "uint256"
        }
      ],
      "stateMutability": "view",
      "type": "function"
    },
    {
      "inputs": [
        {
          "internalType": "uint256",
          "name": "_round",
          "type": "uint256"
        }
      ],
      "name": "getRoundWinner",
      "outputs": [
        {
          "internalType": "address",
          "name": "",
          "type": "address"
        },
        {
          "internalType": "uint256",
          "name": "",
          "type": "uint256"
        }
      ],
      "stateMutability": "view",
      "type": "function"
    },
    {
      "inputs": [],
      "name": "getTimeRemaining",
      "outputs": [
        {
          "internalType": "uint256",
          "name": "",
          "type": "uint256"
        }
      ],
      "stateMutability": "view",
      "type": "function"
    },
    {
      "inputs": [],
      "name": "isLotteryActive",
      "outputs": [
        {
          "internalType": "bool",
          "name": "",
          "type": "bool"
        }
      ],
      "stateMutability": "view",
      "type": "function"
    },
    {
      "inputs": [],
      "name": "lotteryDuration",
      "outputs": [
        {
          "internalType": "uint256",
          "name": "",
          "type": "uint256"
        }
      ],
      "stateMutability": "view",
      "type": "function"
    },
    {
      "inputs": [],
      "name": "lotteryStartTime",
      "outputs": [
        {
          "internalType": "uint256",
          "name": "",
          "type": "uint256"
        }
      ],
      "stateMutability": "view",
      "type": "function"
    },
    {
      "inputs": [],
      "name": "lotteryState",
      "outputs": [
        {
          "internalType": "enum Lottery.LotteryState",
          "name": "",
          "type": "uint8"
        }
      ],
      "stateMutability": "view",
      "type": "function"
    },
    {
      "inputs": [],
      "name": "minTickets",
      "outputs": [
        {
          "internalType": "uint256",
          "name": "",
          "type": "uint256"
        }
      ],
      "stateMutability": "view",
      "type": "function"
    },
    {
      "inputs": [],
      "name": "owner",
      "outputs": [
        {
          "internalType": "address",
          "name": "",
          "type": "address"
        }
      ],
      "stateMutability": "view",
      "type": "function"
    },
    {
      "inputs": [],
      "name": "renounceOwnership",
      "outputs": [],
      "stateMutability": "nonpayable",
      "type": "function"
    },
    {
      "inputs": [
        {
          "internalType": "uint256",
          "name": "",
          "type": "uint256"
        },
        {
          "internalType": "uint256",
          "name": "",
          "type": "uint256"
        }
      ],
      "name": "roundToParticipants",
      "outputs": [
        {
          "internalType": "address",
          "name": "",
          "type": "address"
        }
      ],
      "stateMutability": "view",
      "type": "function"
    },
    {
      "inputs": [
        {
          "internalType": "uint256",
          "name": "",
          "type": "uint256"
        }
      ],
      "name": "roundToPrize",
      "outputs": [
        {
          "internalType": "uint256",
          "name": "",
          "type": "uint256"
        }
      ],
      "stateMutability": "view",
      "type": "function"
    },
    {
      "inputs": [
        {
          "internalType": "uint256",
          "name": "",
          "type": "uint256"
        }
      ],
      "name": "roundToWinner",
      "outputs": [
        {
          "internalType": "address",
          "name": "",
          "type": "address"
        }
      ],
      "stateMutability": "view",
      "type": "function"
    },
    {
      "inputs": [],
      "name": "startLottery",
      "outputs": [],
      "stateMutability": "nonpayable",
      "type": "function"
    },
    {
      "inputs": [],
      "name": "ticketPrice",
      "outputs": [
        {
          "internalType": "uint256",
          "name": "",
          "type": "uint256"
        }
      ],
      "stateMutability": "view",
      "type": "function"
    },
    {
      "inputs": [
        {
          "internalType": "address",
          "name": "",
          "type": "address"
        }
      ],
      "name": "ticketsPurchased",
      "outputs": [
        {
          "internalType": "uint256",
          "name": "",
          "type": "uint256"
        }
      ],
      "stateMutability": "view",
      "type": "function"
    },
    {
      "inputs": [
        {
          "internalType": "address",
          "name": "newOwner",
          "type": "address"
        }
      ],
      "name": "transferOwnership",
      "outputs": [],
      "stateMutability": "nonpayable",
      "type": "function"
    },
    {
      "inputs": [
        {
          "internalType": "uint256",
          "name": "_newDuration",
          "type": "uint256"
        }
      ],
      "name": "updateLotteryDuration",
      "outputs": [],
      "stateMutability": "nonpayable",
      "type": "function"
    },
    {
      "inputs": [
        {
          "internalType": "uint256",
          "name": "_newMinTickets",
          "type": "uint256"
        }
      ],
      "name": "updateMinTickets",
      "outputs": [],
      "stateMutability": "nonpayable",
      "type": "function"
    },
    {
      "inputs": [
        {
          "internalType": "uint256",
          "name": "_newPrice",
          "type": "uint256"
        }
      ],
      "name": "updateTicketPrice",
      "outputs": [],
      "stateMutability": "nonpayable",
      "type": "function"
    }
  ],
  "bytecode": "0x608060405234801561001057600080fd5b50604051612943380380612943833981810160405281019061003291906102cd565b33600073ffffffffffffffffffffffffffffffffffffffff168173ffffffffffffffffffffffffffffffffffffffff16036100a55760006040517f1e4fbdf700000000000000000000000000000000000000000000000000000000815260040161009c9190610361565b60405180910390fd5b6100b4816101ce60201b60201c565b50600083116100f8576040517f08c379a00000000000000000000000000000000000000000000000000000000081526004016100ef906103ff565b60405180910390fd5b6001821161013b576040517f08c379a000000000000000000000000000000000000000000000000000000000815260040161013290610491565b60405180910390fd5b6000811161017e576040517f08c379a000000000000000000000000000000000000000000000000000000000815260040161017590610523565b60405180910390fd5b8260018190555081600281905550806005819055506001600a60006101000a81548160ff021916908360028111156101b9576101b8610543565b5b02179055506000600381905550505050610572565b60008060009054906101000a900473ffffffffffffffffffffffffffffffffffffffff169050816000806101000a81548173ffffffffffffffffffffffffffffffffffffffff021916908373ffffffffffffffffffffffffffffffffffffffff1602179055508173ffffffffffffffffffffffffffffffffffffffff168173ffffffffffffffffffffffffffffffffffffffff167f8be0079c531659141344cd1fd0a4f28419497f9722a3daafe3b4186f6b6457e060405160405180910390a35050565b600080fd5b6000819050919050565b6102aa81610297565b81146102b557600080fd5b50565b6000815190506102c7816102a1565b92915050565b6000806000606084860312156102e6576102e5610292565b5b60006102f4868287016102b8565b9350506020610305868287016102b8565b9250506040610316868287016102b8565b9150509250925092565b600073ffffffffffffffffffffffffffffffffffffffff82169050919050565b600061034b82610320565b9050919050565b61035b81610340565b82525050565b60006020820190506103766000830184610352565b92915050565b600082825260208201905092915050565b7f5469636b6574207072696365206d75737420626520677265617465722074686160008201527f6e20300000000000000000000000000000000000000000000000000000000000602082015250565b60006103e960238361037c565b91506103f48261038d565b604082019050919050565b60006020820190508181036000830152610418816103dc565b9050919050565b7f4d696e696d756d207469636b657473206d75737420626520677265617465722060008201527f7468616e20310000000000000000000000000000000000000000000000000000602082015250565b600061047b60268361037c565b91506104868261041f565b604082019050919050565b600060208201905081810360008301526104aa8161046e565b9050919050565b7f4c6f7474657279206475726174696f6e206d757374206265206772656174657260008201527f207468616e203000000000000000000000000000000000000000000000000000602082015250565b600061050d60278361037c565b9150610518826104b1565b604082019050919050565b6000602082019050818103600083015261053c81610500565b9050919050565b7f4e487b7100000000000000000000000000000000000000000000000000000000600052602160045260246000fd5b6123c2806105816000396000f3fe6080604052600436106101405760003560e01c80638a19c8bc116100b6578063c80c28a21161006f578063c80c28a21461042e578063c984aaaf14610459578063dac6270d14610484578063ee01e69b146104af578063f02137c8146104d8578063f2fde38b1461050157610140565b80638a19c8bc1461031c5780638da5cb5b146103475780638e51001d1461037257806396304946146103af578063a36b6aea146103d8578063c3b69ebb1461040357610140565b806354a8fb471161010857806354a8fb47146101e55780636939864b146102235780636ccda0a61461024e578063715018a61461028b5780637bdb23dc146102a25780638786d247146102df57610140565b80631209b1f6146101455780631593a8c714610170578063160344e2146101875780632d97902f1461019e5780632f366637146101c9575b600080fd5b34801561015157600080fd5b5061015a61052a565b60405161016791906116f4565b60405180910390f35b34801561017c57600080fd5b50610185610530565b005b34801561019357600080fd5b5061019c610678565b005b3480156101aa57600080fd5b506101b3610783565b6040516101c091906116f4565b60405180910390f35b6101e360048036038101906101de9190611740565b610789565b005b3480156101f157600080fd5b5061020c60048036038101906102079190611740565b610a18565b60405161021a9291906117ae565b60405180910390f35b34801561022f57600080fd5b50610238610abd565b604051610245919061184e565b60405180910390f35b34801561025a57600080fd5b5061027560048036038101906102709190611895565b610ad0565b60405161028291906116f4565b60405180910390f35b34801561029757600080fd5b506102a0610ae8565b005b3480156102ae57600080fd5b506102c960048036038101906102c491906118c2565b610afc565b6040516102d69190611902565b60405180910390f35b3480156102eb57600080fd5b5061030660048036038101906103019190611740565b610b4a565b60405161031391906116f4565b60405180910390f35b34801561032857600080fd5b50610331610b62565b60405161033e91906116f4565b60405180910390f35b34801561035357600080fd5b5061035c610b68565b6040516103699190611902565b60405180910390f35b34801561037e57600080fd5b5061039960048036038101906103949190611740565b610b91565b6040516103a69190611902565b60405180910390f35b3480156103bb57600080fd5b506103d660048036038101906103d19190611740565b610bc4565b005b3480156103e457600080fd5b506103ed610c8f565b6040516103fa91906116f4565b60405180910390f35b34801561040f57600080fd5b50610418610c95565b6040516104259190611938565b60405180910390f35b34801561043a57600080fd5b50610443610cec565b60405161045091906116f4565b60405180910390f35b34801561046557600080fd5b5061046e610d0c565b60405161047b91906116f4565b60405180910390f35b34801561049057600080fd5b50610499610d12565b6040516104a691906116f4565b60405180910390f35b3480156104bb57600080fd5b506104d660048036038101906104d19190611740565b610d94565b005b3480156104e457600080fd5b506104ff60048036038101906104fa9190611740565b610e5f565b005b34801561050d57600080fd5b5061052860048036038101906105239190611895565b610f2a565b005b60015481565b610538610fb0565b6000600281111561054c5761054b6117d7565b5b600a60009054906101000a900460ff16600281111561056e5761056d6117d7565b5b146105ae576040517f08c379a00000000000000000000000000000000000000000000000000000000081526004016105a5906119b0565b60405180910390fd5b6002600a60006101000a81548160ff021916908360028111156105d4576105d36117d7565b5b02179055507f477f90094eafb23c8645d2fa968ffe3806f2107e7f977dc4bfd3c3878acd4ee34260035460405161060c9291906119d0565b60405180910390a160025460066000600354815260200190815260200160002080549050106106425761063d611037565b610676565b61064a611437565b6001600a60006101000a81548160ff021916908360028111156106705761066f6117d7565b5b02179055505b565b610680610fb0565b60016002811115610694576106936117d7565b5b600a60009054906101000a900460ff1660028111156106b6576106b56117d7565b5b146106f6576040517f08c379a00000000000000000000000000000000000000000000000000000000081526004016106ed90611a45565b60405180910390fd5b6000600a60006101000a81548160ff0219169083600281111561071c5761071b6117d7565b5b02179055506003600081548092919061073490611a94565b9190505550426004819055507ffcdeb3394eefba8891818e18ed3c4d1aa8872705afa5819133971caea073dc1d60045460055460035460405161077993929190611adc565b60405180910390a1565b60055481565b6000600281111561079d5761079c6117d7565b5b600a60009054906101000a900460ff1660028111156107bf576107be6117d7565b5b146107ff576040517f08c379a00000000000000000000000000000000000000000000000000000000081526004016107f6906119b0565b60405180910390fd5b60055460045461080f9190611b13565b4210610850576040517f08c379a000000000000000000000000000000000000000000000000000000000815260040161084790611b93565b60405180910390fd5b60008111610893576040517f08c379a000000000000000000000000000000000000000000000000000000000815260040161088a90611c25565b60405180910390fd5b806001546108a19190611c45565b34146108e2576040517f08c379a00000000000000000000000000000000000000000000000000000000081526004016108d990611cd3565b60405180910390fd5b60005b8181101561097057600660006003548152602001908152602001600020339080600181540180825580915050600190039060005260206000200160009091909190916101000a81548173ffffffffffffffffffffffffffffffffffffffff021916908373ffffffffffffffffffffffffffffffffffffffff16021790555080806001019150506108e5565b5080600760003373ffffffffffffffffffffffffffffffffffffffff1673ffffffffffffffffffffffffffffffffffffffff16815260200190815260200160002060008282546109c09190611b13565b925050819055503373ffffffffffffffffffffffffffffffffffffffff167f0668f5b446eb814fe35b3206f43f14bd8567ba04ddaf7a3ee56516929ab22ccb82604051610a0d91906116f4565b60405180910390a250565b600080600083118015610a2d57506003548311155b610a6c576040517f08c379a0000000000000000000000000000000000000000000000000000000008152600401610a6390611d3f565b60405180910390fd5b6008600084815260200190815260200160002060009054906101000a900473ffffffffffffffffffffffffffffffffffffffff16600960008581526020019081526020016000205491509150915091565b600a60009054906101000a900460ff1681565b60076020528060005260406000206000915090505481565b610af0610fb0565b610afa600061160f565b565b60066020528160005260406000208181548110610b1857600080fd5b906000526020600020016000915091509054906101000a900473ffffffffffffffffffffffffffffffffffffffff1681565b60096020528060005260406000206000915090505481565b60035481565b60008060009054906101000a900473ffffffffffffffffffffffffffffffffffffffff16905090565b60086020528060005260406000206000915054906101000a900473ffffffffffffffffffffffffffffffffffffffff1681565b610bcc610fb0565b60016002811115610be057610bdf6117d7565b5b600a60009054906101000a900460ff166002811115610c0257610c016117d7565b5b14610c42576040517f08c379a0000000000000000000000000000000000000000000000000000000008152600401610c3990611dd1565b60405180910390fd5b60008111610c85576040517f08c379a0000000000000000000000000000000000000000000000000000000008152600401610c7c90611e3d565b60405180910390fd5b8060058190555050565b60045481565b6000806002811115610caa57610ca96117d7565b5b600a60009054906101000a900460ff166002811115610ccc57610ccb6117d7565b5b148015610ce75750600554600454610ce49190611b13565b42105b905090565b600060066000600354815260200190815260200160002080549050905090565b60025481565b6000806002811115610d2757610d266117d7565b5b600a60009054906101000a900460ff166002811115610d4957610d486117d7565b5b141580610d655750600554600454610d619190611b13565b4210155b15610d735760009050610d91565b42600554600454610d849190611b13565b610d8e9190611e5d565b90505b90565b610d9c610fb0565b60016002811115610db057610daf6117d7565b5b600a60009054906101000a900460ff166002811115610dd257610dd16117d7565b5b14610e12576040517f08c379a0000000000000000000000000000000000000000000000000000000008152600401610e0990611dd1565b60405180910390fd5b60018111610e55576040517f08c379a0000000000000000000000000000000000000000000000000000000008152600401610e4c90611f03565b60405180910390fd5b8060028190555050565b610e67610fb0565b60016002811115610e7b57610e7a6117d7565b5b600a60009054906101000a900460ff166002811115610e9d57610e9c6117d7565b5b14610edd576040517f08c379a0000000000000000000000000000000000000000000000000000000008152600401610ed490611dd1565b60405180910390fd5b60008111610f20576040517f08c379a0000000000000000000000000000000000000000000000000000000008152600401610f1790611f6f565b60405180910390fd5b8060018190555050565b610f32610fb0565b600073ffffffffffffffffffffffffffffffffffffffff168173ffffffffffffffffffffffffffffffffffffffff1603610fa45760006040517f1e4fbdf7000000000000000000000000000000000000000000000000000000008152600401610f9b9190611902565b60405180910390fd5b610fad8161160f565b50565b610fb86116d3565b73ffffffffffffffffffffffffffffffffffffffff16610fd6610b68565b73ffffffffffffffffffffffffffffffffffffffff161461103557610ff96116d3565b6040517f118cdaa700000000000000000000000000000000000000000000000000000000815260040161102c9190611902565b60405180910390fd5b565b60028081111561104a576110496117d7565b5b600a60009054906101000a900460ff16600281111561106c5761106b6117d7565b5b146110ac576040517f08c379a00000000000000000000000000000000000000000000000000000000081526004016110a390611fdb565b60405180910390fd5b600254600660006003548152602001908152602001600020805490501015611109576040517f08c379a000000000000000000000000000000000000000000000000000000000815260040161110090612047565b60405180910390fd5b60004790506000600660006003548152602001908152602001600020805490504244600660006003548152602001908152602001600020604051602001611152939291906121a6565b6040516020818303038152906040528051906020012060001c611175919061220e565b9050600060066000600354815260200190815260200160002082815481106111a05761119f61223f565b5b9060005260206000200160009054906101000a900473ffffffffffffffffffffffffffffffffffffffff1690508060086000600354815260200190815260200160002060006101000a81548173ffffffffffffffffffffffffffffffffffffffff021916908373ffffffffffffffffffffffffffffffffffffffff160217905550826009600060035481526020019081526020016000208190555060008173ffffffffffffffffffffffffffffffffffffffff16846040516112619061229f565b60006040518083038185875af1925050503d806000811461129e576040519150601f19603f3d011682016040523d82523d6000602084013e6112a3565b606091505b50509050806112e7576040517f08c379a00000000000000000000000000000000000000000000000000000000081526004016112de90612300565b60405180910390fd5b8173ffffffffffffffffffffffffffffffffffffffff167f866efae43947560fe9d0de9013bc323d5718730d5c1543261b48a7bcb0717b93856003546040516113319291906119d0565b60405180910390a26001600a60006101000a81548160ff0219169083600281111561135f5761135e6117d7565b5b021790555060005b6006600060035481526020019081526020016000208054905081101561143057600060066000600354815260200190815260200160002082815481106113b0576113af61223f565b5b9060005260206000200160009054906101000a900473ffffffffffffffffffffffffffffffffffffffff1690506000600760008373ffffffffffffffffffffffffffffffffffffffff1673ffffffffffffffffffffffffffffffffffffffff16815260200190815260200160002081905550508080600101915050611367565b5050505050565b60005b6006600060035481526020019081526020016000208054905081101561160c57600060066000600354815260200190815260200160002082815481106114835761148261223f565b5b9060005260206000200160009054906101000a900473ffffffffffffffffffffffffffffffffffffffff1690506000600154600760008473ffffffffffffffffffffffffffffffffffffffff1673ffffffffffffffffffffffffffffffffffffffff168152602001908152602001600020546114ff9190611c45565b905060008111156115fd576000600760008473ffffffffffffffffffffffffffffffffffffffff1673ffffffffffffffffffffffffffffffffffffffff1681526020019081526020016000208190555060008273ffffffffffffffffffffffffffffffffffffffff16826040516115759061229f565b60006040518083038185875af1925050503d80600081146115b2576040519150601f19603f3d011682016040523d82523d6000602084013e6115b7565b606091505b50509050806115fb576040517f08c379a00000000000000000000000000000000000000000000000000000000081526004016115f29061236c565b60405180910390fd5b505b5050808060010191505061143a565b50565b60008060009054906101000a900473ffffffffffffffffffffffffffffffffffffffff169050816000806101000a81548173ffffffffffffffffffffffffffffffffffffffff021916908373ffffffffffffffffffffffffffffffffffffffff1602179055508173ffffffffffffffffffffffffffffffffffffffff168173ffffffffffffffffffffffffffffffffffffffff167f8be0079c531659141344cd1fd0a4f28419497f9722a3daafe3b4186f6b6457e060405160405180910390a35050565b600033905090565b6000819050919050565b6116ee816116db565b82525050565b600060208201905061170960008301846116e5565b92915050565b600080fd5b61171d816116db565b811461172857600080fd5b50565b60008135905061173a81611714565b92915050565b6000602082840312156117565761175561170f565b5b60006117648482850161172b565b91505092915050565b600073ffffffffffffffffffffffffffffffffffffffff82169050919050565b60006117988261176d565b9050919050565b6117a88161178d565b82525050565b60006040820190506117c3600083018561179f565b6117d060208301846116e5565b9392505050565b7f4e487b7100000000000000000000000000000000000000000000000000000000600052602160045260246000fd5b60038110611817576118166117d7565b5b50565b600081905061182882611806565b919050565b60006118388261181a565b9050919050565b6118488161182d565b82525050565b6000602082019050611863600083018461183f565b92915050565b6118728161178d565b811461187d57600080fd5b50565b60008135905061188f81611869565b92915050565b6000602082840312156118ab576118aa61170f565b5b60006118b984828501611880565b91505092915050565b600080604083850312156118d9576118d861170f565b5b60006118e78582860161172b565b92505060206118f88582860161172b565b9150509250929050565b6000602082019050611917600083018461179f565b92915050565b60008115159050919050565b6119328161191d565b82525050565b600060208201905061194d6000830184611929565b92915050565b600082825260208201905092915050565b7f4c6f7474657279206973206e6f74206f70656e00000000000000000000000000600082015250565b600061199a601383611953565b91506119a582611964565b602082019050919050565b600060208201905081810360008301526119c98161198d565b9050919050565b60006040820190506119e560008301856116e5565b6119f260208301846116e5565b9392505050565b7f4c6f7474657279206973206e6f7420636c6f7365640000000000000000000000600082015250565b6000611a2f601583611953565b9150611a3a826119f9565b602082019050919050565b60006020820190508181036000830152611a5e81611a22565b9050919050565b7f4e487b7100000000000000000000000000000000000000000000000000000000600052601160045260246000fd5b6000611a9f826116db565b91507fffffffffffffffffffffffffffffffffffffffffffffffffffffffffffffffff8203611ad157611ad0611a65565b5b600182019050919050565b6000606082019050611af160008301866116e5565b611afe60208301856116e5565b611b0b60408301846116e5565b949350505050565b6000611b1e826116db565b9150611b29836116db565b9250828201905080821115611b4157611b40611a65565b5b92915050565b7f4c6f74746572792068617320656e646564000000000000000000000000000000600082015250565b6000611b7d601183611953565b9150611b8882611b47565b602082019050919050565b60006020820190508181036000830152611bac81611b70565b9050919050565b7f4d757374207075726368617365206174206c65617374206f6e65207469636b6560008201527f7400000000000000000000000000000000000000000000000000000000000000602082015250565b6000611c0f602183611953565b9150611c1a82611bb3565b604082019050919050565b60006020820190508181036000830152611c3e81611c02565b9050919050565b6000611c50826116db565b9150611c5b836116db565b9250828202611c69816116db565b91508282048414831517611c8057611c7f611a65565b5b5092915050565b7f496e636f72726563742045544820616d6f756e74000000000000000000000000600082015250565b6000611cbd601483611953565b9150611cc882611c87565b602082019050919050565b60006020820190508181036000830152611cec81611cb0565b9050919050565b7f496e76616c696420726f756e6400000000000000000000000000000000000000600082015250565b6000611d29600d83611953565b9150611d3482611cf3565b602082019050919050565b60006020820190508181036000830152611d5881611d1c565b9050919050565b7f43616e6e6f742075706461746520647572696e6720616374697665206c6f747460008201527f6572790000000000000000000000000000000000000000000000000000000000602082015250565b6000611dbb602383611953565b9150611dc682611d5f565b604082019050919050565b60006020820190508181036000830152611dea81611dae565b9050919050565b7f4475726174696f6e206d7573742062652067726561746572207468616e203000600082015250565b6000611e27601f83611953565b9150611e3282611df1565b602082019050919050565b60006020820190508181036000830152611e5681611e1a565b9050919050565b6000611e68826116db565b9150611e73836116db565b9250828203905081811115611e8b57611e8a611a65565b5b92915050565b7f4d696e696d756d207469636b657473206d75737420626520677265617465722060008201527f7468616e20310000000000000000000000000000000000000000000000000000602082015250565b6000611eed602683611953565b9150611ef882611e91565b604082019050919050565b60006020820190508181036000830152611f1c81611ee0565b9050919050565b7f5072696365206d7573742062652067726561746572207468616e203000000000600082015250565b6000611f59601c83611953565b9150611f6482611f23565b602082019050919050565b60006020820190508181036000830152611f8881611f4c565b9050919050565b7f4e6f7420696e2064726177696e67207374617465000000000000000000000000600082015250565b6000611fc5601483611953565b9150611fd082611f8f565b602082019050919050565b60006020820190508181036000830152611ff481611fb8565b9050919050565b7f4e6f7420656e6f756768207061727469636970616e7473000000000000000000600082015250565b6000612031601783611953565b915061203c82611ffb565b602082019050919050565b6000602082019050818103600083015261206081612024565b9050919050565b6000819050919050565b61208261207d826116db565b612067565b82525050565b600081549050919050565b600081905092915050565b60008190508160005260206000209050919050565b6120bc8161178d565b82525050565b60006120ce83836120b3565b60208301905092915050565b60008160001c9050919050565b600073ffffffffffffffffffffffffffffffffffffffff82169050919050565b600061211a612115836120da565b6120e7565b9050919050565b600061212d8254612107565b9050919050565b6000600182019050919050565b600061214c82612088565b6121568185612093565b93506121618361209e565b8060005b838110156121995761217682612121565b61218088826120c2565b975061218b83612134565b925050600181019050612165565b5085935050505092915050565b60006121b28286612071565b6020820191506121c28285612071565b6020820191506121d28284612141565b9150819050949350505050565b7f4e487b7100000000000000000000000000000000000000000000000000000000600052601260045260246000fd5b6000612219826116db565b9150612224836116db565b925082612234576122336121df565b5b828206905092915050565b7f4e487b7100000000000000000000000000000000000000000000000000000000600052603260045260246000fd5b600081905092915050565b50565b600061228960008361226e565b915061229482612279565b600082019050919050565b60006122aa8261227c565b9150819050919050565b7f5472616e73666572206661696c65640000000000000000000000000000000000600082015250565b60006122ea600f83611953565b91506122f5826122b4565b602082019050919050565b60006020820190508181036000830152612319816122dd565b9050919050565b7f526566756e64206661696c656400000000000000000000000000000000000000600082015250565b6000612356600d83611953565b915061236182612320565b602082019050919050565b6000602082019050818103600083015261238581612349565b905091905056fea26469706673582212200ee89092bfb696ce164e7b0df7b6658dfba05153db7bbdce417a1104890b935e64736f6c634300081c0033",
  "linkReferences": {},
  "deployedLinkReferences": {}
}